S013000053697A65436F6D706172652E73726563AF
S11300000C94A2000C94B6000C94B6000C94B600A8
S11300100C94B6000C94B6000C94B6000C94B60084
S11300200C94B6000C94B6000C94B6000C94B60074
S11300300C94B6000C94B6000C94B6000C94B60064
S11300400C94B6000C94B6000C94B6000C94B60054
S11300500C94B6000C94B6000C94B6000C94B60044
S11300600C94B6000C94B6000C94B6000C94B60034
S11300700C94B6000C94B6000C94B6000C94B60024
S11300800C94B6000C94B6000C94B6000C94B60014
S11300900C94B6000C94B6000C94B6000C94B60004
S11300A00C94B6000C94B6000C94B6000C94B600F4
S11300B00C94B6000C94B6000C94B6000C94B600E4
S11300C00C94B6000C94B6000C94B6000C94B600D4
S11300D00C94B6000C94B6000C94B6000C94B600C4
S11300E00C94B6000C94B6000C94B6000C94B600B4
S11300F00C94B6000C94B6000C94B6000C94B600A4
S11301000C94B6000C94B6000C94B6000C94B60093
S11301100C94B6000C94B6000C94B6000C94B60083
S11301200C94B6000C94B6000C94B6000C94B60073
S11301300C94B6000C94B6000C94B6000C94B60063
S11301400C94B60011241FBECFEFCDBFDFE3DEBF9A
S113015000E00CBF20E2A0E0B0E201C01D92AA388A
S1130160B207E1F70E94B8000C942E030C9400002F
S113017020ED3FE049E450E46091862070918720AF
S113018080918820909189200E9464016B017C01F8
S11301906093862070938720809388209093892091
S11301A026EB33EF4DE250E40E94C1024B015C01A7
S11301B023E939EA42E05EE3609182207091832072
S11301C080918420909185200E94C1029B01AC0102
S11301D0C501B4010E9463014B015C01609382205C
S11301E070938320809384209093852023EC33E5BF
S11301F04BEF51E40E94BC0218162CF5809180202C
S1130200909181209C012F5F3F4F20938020309359
S11302108120880F991F880F991FFC01E050F04E30
S1130220C082D182E282F382A5019401C701B601A2
S11302300E94D50160938220709383208093842050
S11302409093852034C02091802030918120C90171
S113025001968093802090938120220F331F220FD8
S1130260331FF901E050F04E80829182A282B38262
S1130270880F991F880F991FFC01E050F04E2081D0
S1130280318142815381C701B6010E94D001882384
S113029074F4A7019601C501B4010E94D5016093CD
S11302A08620709387208093882090938920809162
S11302B0802090918120809708F45ACF109280205A
S11302C01092812055CF5058BB27AA270E947B014A
S11302D00C9482020E94740238F00E947B0220F087
S11302E039F49F3F19F426F40C9471020EF4E0954E
S11302F0E7FB0C946B02E92F0E94930258F3BA17A0
S1130300620773078407950720F079F4A6F50C9427
S1130310B5020EF4E0950B2EBA2FA02D0B01B901F6
S113032090010C01CA01A0011124FF27591B99F067
S1130330593F50F4503E68F11A16F040A22F232F73
S1130340342F4427585FF3CF469537952795A795C3
S1130350F0405395C9F77EF41F16BA0B620B730B6A
S1130360840BBAF09150A1F0FF0FBB1F661F771FDB
S1130370881FC2F70EC0BA0F621F731F841F48F490
S1130380879577956795B795F7959E3F08F0B0CF19
S11303909395880F08F09927EE0F97958795089500
S11303A00E94470208F481E008950E94E9010C9438
S11303B082020E947B0258F00E94740240F029F4E9
S11303C05F3F29F00C946B0251110C94B6020C940B
S11303D071020E94930268F39923B1F3552391F3B8
S11303E0951B550BBB27AA2762177307840738F0A0
S11303F09F5F5F4F220F331F441FAA1FA9F335D0FD
S11304000E2E3AF0E0E832D091505040E695001CB0
S1130410CAF72BD0FE2F29D0660F771F881FBB1F6A
S1130420261737074807AB07B0E809F0BB0B802D48
S1130430BF01FF2793585F4F3AF09E3F510578F074
S11304400C946B020C94B6025F3FE4F3983ED4F331
S1130450869577956795B795F7959F5FC9F7880F48
S1130460911D9695879597F90895E1E0660F771F9A
S1130470881FBB1F621773078407BA0720F0621B2B
S1130480730B840BBA0BEE1F88F7E0950895990F50
S11304900008550FAA0BE0E8FEEF16161706E8074A
S11304A0F907C0F012161306E407F50798F0621B6B
S11304B0730B840B950B39F40A2661F0232B242B40
S11304C0252B21F408950A2609F4A140A6958FEF5F
S11304D0811D811D089597F99F6780E870E060E0B1
S11304E008959FEF80EC089500240A9416161706C9
S11304F018060906089500240A9412161306140611
S113050005060895092E0394000C11F4882352F073
S1130510BB0F40F4BF2B11F460FF04C06F5F7F4F2B
S11305208F4F9F4F089557FD9058440F551F59F012
S11305305F3F71F04795880F97FB991F61F09F3FCC
S113054079F087950895121613061406551FF2CFF5
S11305504695F1DF08C0161617061806991FF1CF45
S113056086957105610508940895E894BB2766276C
S11305707727CB0197F908950E94470208F48FEF7B
S113058008950E94D4020C9482020E94740238F0EE
S11305900E947B0220F0952311F00C946B020C94C2
S11305A0710211240C94B6020E94930270F3959F79
S11305B0C1F3950F50E0551F629FF001729FBB2756
S11305C0F00DB11D639FAA27F00DB11DAA1F649FF2
S11305D06627B00DA11D661F829F2227B00DA11DA5
S11305E0621F739FB00DA11D621F839FA00D611D2B
S11305F0221F749F3327A00D611D231F849F600D4C
S1130600211D822F762F6A2F11249F5750409AF074
S1130610F1F088234AF0EE0FFF1FBB1F661F771F00
S1130620881F91505040A9F79E3F510580F00C94CB
S11306306B020C94B6025F3FE4F3983ED4F38695C4
S113064077956795B795F795E7959F5FC1F7FE2B6B
S1130650880F911D9695879597F90895F894FFCF83
S9030000FC
